:020000040800F2
:100000006806002029020008670400085F04000851
:1000100065040008DB0200080B0500080000000072
:100020000000000000000000000000008B04000839
:10003000E902000800000000890400088D0400089F
:10004000430200084302000843020008430200087C
:10005000430200084302000843020008430200086C
:10006000430200084302000843020008430200085C
:10007000DD020008DF020008E1020008E3020008D8
:10008000E5020008E70200084302000843020008F6
:10009000430200084302000843020008430200082C
:1000A000430200084302000843020008430200081C
:1000B00043020008430200084302000863040008EA
:1000C00061040008430200084302000843020008DC
:1000D000430200080705000843020008090500085C
:1000E00043020008430200084302000843020008DC
:1000F00043020008430200084302000843020008CC
:1001000000000000000000000000000043020008A2
:1001100043020008430200084302000805050008E6
:10012000430200084302000843020008430200089B
:100130004302000843020008000000000000000025
:1001400043020008430200084302000800000000C8
:10015000000000000000000000000000000000009F
:1001600000000000000000004302000843020008F5
:100170004302000800000000000000000000000032
:10018000000000004302000800F002F800F03CF814
:100190000AA090E8000C82448344AAF10107DA45E2
:1001A00001D100F031F8AFF2090EBAE80F0013F0F8
:1001B000010F18BFFB1A43F001031847600300004A
:1001C00080030000103A24BF78C878C1FAD85207DB
:1001D00024BF30C830C144BF04680C6070470000C1
:1001E0000023002400250026103A28BF78C1FBD840
:1001F000520728BF30C148BF0B6070471FB500F0E1
:1002000088F91FBD10B510BD00F031F81146FFF799
:10021000F5FF00F07BF900F04FF803B4FFF7F2FFB1
:1002200003BC00F053F80000094880470948004724
:10023000FEE7FEE7FEE7FEE7FEE7FEE7FEE7FEE796
:10024000FEE7FEE704480549054A064B70470000F3
:100250009D0400088901000868000020680600204D
:10026000680200206802002070477047704775469A
:1002700000F028F8AE4605006946534620F0070016
:10028000854618B020B5FFF7DDFFBDE820404FF0F0
:1002900000064FF000074FF000084FF0000B21F070
:1002A0000701AC46ACE8C009ACE8C009ACE8C0093D
:1002B000ACE8C0098D4670470446AFF30080204685
:1002C000FFF7ABFF004870470800002001491820E5
:1002D000ABBEFEE7260002007047FEE7704770479E
:1002E00070477047704770477047000002480168C8
:1002F000491C01607047000000000020074810B54D
:10030000016841F010010160032000F07DF80F202A
:1003100000F006F800F018F8002010BD00200240A0
:1003200010B5044607484FF47A710068B0FBF1F04D
:1003300000F07DF800222146501E00F045F8002014
:1003400010BD0000040000201E4808B5816941F07E
:1003500001018161816901F001010091C16941F0F0
:100360008051C161C06900F080500090032000F00E
:100370004BF8002211466FF00B0000F025F8002228
:1003800011466FF00A0000F01FF8002211466FF0CE
:10039000090000F019F800221146501F00F014F86F
:1003A00000221146101F00F00FF800221146901E87
:1003B00000F00AF80022BDE808401146501E00F087
:1003C00003B8000000100240F0B40E4B1B680C464E
:1003D000C3F30223C3F10705042D00D90425191D19
:1003E000072901D2002300E0DB1E012606FA05F1F1
:1003F000491E214099409E40761E16403143F0BC74
:1004000000F032B80CED00E0064900F00702086881
:100410004FF6FF03184040EA0220034A10430860E9
:10042000704700000CED00E00000FA05704710B5C1
:10043000401EB0F1807F01D3012010BD4FF0E024B9
:1004400060610F21601700F00FF80020A061072005
:100450002061002010BD10B5FFF7E8FF10BDFEE7DA
:1004600070477047FEE770470907090E002806DA53
:1004700000F00F0000F1E02080F8141D704700F13B
:10048000E02080F8001470477047704710B5FFF700
:100490002DFFBDE81040FFF7DEBF000014480168E3
:1004A00041F4700101601348016841F001010160ED
:1004B0004168114A114041600168104A11400160D1
:1004C000016821F480210160416821F4FE0141604E
:1004D000C16A21F00F01C162016B094A1140016339
:1004E000002181600249C003803908607047000024
:1004F00088ED00E0001002400CC07FF8FFFFF6FE20
:10050000CCFC00FF704770477047FEE7FFF7F6FE30
:10051000FEE74FF04070E1EE100A70473C0500081E
:100520000000002008000000C40100084405000885
:100530000800002060060000E00100080000000044
:0405400000127A002B
:040000050800018965
:00000001FF
